{
  "contractName": "NFTMarketplace",
  "abi": [
    {
      "inputs": [],
      "stateMutability": "nonpayable",
      "type": "constructor"
    },
    {
      "inputs": [
        {
          "internalType": "address",
          "name": "sender",
          "type": "address"
        },
        {
          "internalType": "uint256",
          "name": "tokenId",
          "type": "uint256"
        },
        {
          "internalType": "address",
          "name": "owner",
          "type": "address"
        }
      ],
      "name": "ERC721IncorrectOwner",
      "type": "error"
    },
    {
      "inputs": [
        {
          "internalType": "address",
          "name": "operator",
          "type": "address"
        },
        {
          "internalType": "uint256",
          "name": "tokenId",
          "type": "uint256"
        }
      ],
      "name": "ERC721InsufficientApproval",
      "type": "error"
    },
    {
      "inputs": [
        {
          "internalType": "address",
          "name": "approver",
          "type": "address"
        }
      ],
      "name": "ERC721InvalidApprover",
      "type": "error"
    },
    {
      "inputs": [
        {
          "internalType": "address",
          "name": "operator",
          "type": "address"
        }
      ],
      "name": "ERC721InvalidOperator",
      "type": "error"
    },
    {
      "inputs": [
        {
          "internalType": "address",
          "name": "owner",
          "type": "address"
        }
      ],
      "name": "ERC721InvalidOwner",
      "type": "error"
    },
    {
      "inputs": [
        {
          "internalType": "address",
          "name": "receiver",
          "type": "address"
        }
      ],
      "name": "ERC721InvalidReceiver",
      "type": "error"
    },
    {
      "inputs": [
        {
          "internalType": "address",
          "name": "sender",
          "type": "address"
        }
      ],
      "name": "ERC721InvalidSender",
      "type": "error"
    },
    {
      "inputs": [
        {
          "internalType": "uint256",
          "name": "tokenId",
          "type": "uint256"
        }
      ],
      "name": "ERC721NonexistentToken",
      "type": "error"
    },
    {
      "inputs": [
        {
          "internalType": "address",
          "name": "owner",
          "type": "address"
        }
      ],
      "name": "OwnableInvalidOwner",
      "type": "error"
    },
    {
      "inputs": [
        {
          "internalType": "address",
          "name": "account",
          "type": "address"
        }
      ],
      "name": "OwnableUnauthorizedAccount",
      "type": "error"
    },
    {
      "anonymous": false,
      "inputs": [
        {
          "indexed": true,
          "internalType": "address",
          "name": "owner",
          "type": "address"
        },
        {
          "indexed": true,
          "internalType": "address",
          "name": "approved",
          "type": "address"
        },
        {
          "indexed": true,
          "internalType": "uint256",
          "name": "tokenId",
          "type": "uint256"
        }
      ],
      "name": "Approval",
      "type": "event"
    },
    {
      "anonymous": false,
      "inputs": [
        {
          "indexed": true,
          "internalType": "address",
          "name": "owner",
          "type": "address"
        },
        {
          "indexed": true,
          "internalType": "address",
          "name": "operator",
          "type": "address"
        },
        {
          "indexed": false,
          "internalType": "bool",
          "name": "approved",
          "type": "bool"
        }
      ],
      "name": "ApprovalForAll",
      "type": "event"
    },
    {
      "anonymous": false,
      "inputs": [
        {
          "indexed": false,
          "internalType": "uint256",
          "name": "_fromTokenId",
          "type": "uint256"
        },
        {
          "indexed": false,
          "internalType": "uint256",
          "name": "_toTokenId",
          "type": "uint256"
        }
      ],
      "name": "BatchMetadataUpdate",
      "type": "event"
    },
    {
      "anonymous": false,
      "inputs": [
        {
          "indexed": true,
          "internalType": "uint256",
          "name": "tokenId",
          "type": "uint256"
        },
        {
          "indexed": false,
          "internalType": "address",
          "name": "seller",
          "type": "address"
        },
        {
          "indexed": false,
          "internalType": "address",
          "name": "tokenOwner",
          "type": "address"
        },
        {
          "indexed": false,
          "internalType": "uint256",
          "name": "price",
          "type": "uint256"
        },
        {
          "indexed": false,
          "internalType": "bool",
          "name": "sold",
          "type": "bool"
        }
      ],
      "name": "MarketItemCreated",
      "type": "event"
    },
    {
      "anonymous": false,
      "inputs": [
        {
          "indexed": false,
          "internalType": "uint256",
          "name": "_tokenId",
          "type": "uint256"
        }
      ],
      "name": "MetadataUpdate",
      "type": "event"
    },
    {
      "anonymous": false,
      "inputs": [
        {
          "indexed": true,
          "internalType": "address",
          "name": "previousOwner",
          "type": "address"
        },
        {
          "indexed": true,
          "internalType": "address",
          "name": "newOwner",
          "type": "address"
        }
      ],
      "name": "OwnershipTransferred",
      "type": "event"
    },
    {
      "anonymous": false,
      "inputs": [
        {
          "indexed": true,
          "internalType": "address",
          "name": "from",
          "type": "address"
        },
        {
          "indexed": true,
          "internalType": "address",
          "name": "to",
          "type": "address"
        },
        {
          "indexed": true,
          "internalType": "uint256",
          "name": "tokenId",
          "type": "uint256"
        }
      ],
      "name": "Transfer",
      "type": "event"
    },
    {
      "inputs": [
        {
          "internalType": "address",
          "name": "to",
          "type": "address"
        },
        {
          "internalType": "uint256",
          "name": "tokenId",
          "type": "uint256"
        }
      ],
      "name": "approve",
      "outputs": [],
      "stateMutability": "nonpayable",
      "type": "function"
    },
    {
      "inputs": [
        {
          "internalType": "address",
          "name": "owner",
          "type": "address"
        }
      ],
      "name": "balanceOf",
      "outputs": [
        {
          "internalType": "uint256",
          "name": "",
          "type": "uint256"
        }
      ],
      "stateMutability": "view",
      "type": "function"
    },
    {
      "inputs": [
        {
          "internalType": "uint256",
          "name": "tokenId",
          "type": "uint256"
        }
      ],
      "name": "getApproved",
      "outputs": [
        {
          "internalType": "address",
          "name": "",
          "type": "address"
        }
      ],
      "stateMutability": "view",
      "type": "function"
    },
    {
      "inputs": [
        {
          "internalType": "address",
          "name": "owner",
          "type": "address"
        },
        {
          "internalType": "address",
          "name": "operator",
          "type": "address"
        }
      ],
      "name": "isApprovedForAll",
      "outputs": [
        {
          "internalType": "bool",
          "name": "",
          "type": "bool"
        }
      ],
      "stateMutability": "view",
      "type": "function"
    },
    {
      "inputs": [],
      "name": "listingPrice",
      "outputs": [
        {
          "internalType": "uint256",
          "name": "",
          "type": "uint256"
        }
      ],
      "stateMutability": "view",
      "type": "function"
    },
    {
      "inputs": [],
      "name": "name",
      "outputs": [
        {
          "internalType": "string",
          "name": "",
          "type": "string"
        }
      ],
      "stateMutability": "view",
      "type": "function"
    },
    {
      "inputs": [],
      "name": "owner",
      "outputs": [
        {
          "internalType": "address",
          "name": "",
          "type": "address"
        }
      ],
      "stateMutability": "view",
      "type": "function"
    },
    {
      "inputs": [
        {
          "internalType": "uint256",
          "name": "tokenId",
          "type": "uint256"
        }
      ],
      "name": "ownerOf",
      "outputs": [
        {
          "internalType": "address",
          "name": "",
          "type": "address"
        }
      ],
      "stateMutability": "view",
      "type": "function"
    },
    {
      "inputs": [],
      "name": "renounceOwnership",
      "outputs": [],
      "stateMutability": "nonpayable",
      "type": "function"
    },
    {
      "inputs": [
        {
          "internalType": "address",
          "name": "from",
          "type": "address"
        },
        {
          "internalType": "address",
          "name": "to",
          "type": "address"
        },
        {
          "internalType": "uint256",
          "name": "tokenId",
          "type": "uint256"
        }
      ],
      "name": "safeTransferFrom",
      "outputs": [],
      "stateMutability": "nonpayable",
      "type": "function"
    },
    {
      "inputs": [
        {
          "internalType": "address",
          "name": "from",
          "type": "address"
        },
        {
          "internalType": "address",
          "name": "to",
          "type": "address"
        },
        {
          "internalType": "uint256",
          "name": "tokenId",
          "type": "uint256"
        },
        {
          "internalType": "bytes",
          "name": "data",
          "type": "bytes"
        }
      ],
      "name": "safeTransferFrom",
      "outputs": [],
      "stateMutability": "nonpayable",
      "type": "function"
    },
    {
      "inputs": [
        {
          "internalType": "address",
          "name": "operator",
          "type": "address"
        },
        {
          "internalType": "bool",
          "name": "approved",
          "type": "bool"
        }
      ],
      "name": "setApprovalForAll",
      "outputs": [],
      "stateMutability": "nonpayable",
      "type": "function"
    },
    {
      "inputs": [
        {
          "internalType": "bytes4",
          "name": "interfaceId",
          "type": "bytes4"
        }
      ],
      "name": "supportsInterface",
      "outputs": [
        {
          "internalType": "bool",
          "name": "",
          "type": "bool"
        }
      ],
      "stateMutability": "view",
      "type": "function"
    },
    {
      "inputs": [],
      "name": "symbol",
      "outputs": [
        {
          "internalType": "string",
          "name": "",
          "type": "string"
        }
      ],
      "stateMutability": "view",
      "type": "function"
    },
    {
      "inputs": [
        {
          "internalType": "uint256",
          "name": "tokenId",
          "type": "uint256"
        }
      ],
      "name": "tokenURI",
      "outputs": [
        {
          "internalType": "string",
          "name": "",
          "type": "string"
        }
      ],
      "stateMutability": "view",
      "type": "function"
    },
    {
      "inputs": [
        {
          "internalType": "address",
          "name": "from",
          "type": "address"
        },
        {
          "internalType": "address",
          "name": "to",
          "type": "address"
        },
        {
          "internalType": "uint256",
          "name": "tokenId",
          "type": "uint256"
        }
      ],
      "name": "transferFrom",
      "outputs": [],
      "stateMutability": "nonpayable",
      "type": "function"
    },
    {
      "inputs": [
        {
          "internalType": "address",
          "name": "newOwner",
          "type": "address"
        }
      ],
      "name": "transferOwnership",
      "outputs": [],
      "stateMutability": "nonpayable",
      "type": "function"
    },
    {
      "inputs": [
        {
          "internalType": "uint256",
          "name": "_listingPrice",
          "type": "uint256"
        }
      ],
      "name": "updateListingPrice",
      "outputs": [],
      "stateMutability": "nonpayable",
      "type": "function"
    },
    {
      "inputs": [
        {
          "internalType": "string",
          "name": "tokenURI",
          "type": "string"
        },
        {
          "internalType": "uint256",
          "name": "price",
          "type": "uint256"
        }
      ],
      "name": "createToken",
      "outputs": [
        {
          "internalType": "uint256",
          "name": "",
          "type": "uint256"
        }
      ],
      "stateMutability": "payable",
      "type": "function"
    },
    {
      "inputs": [
        {
          "internalType": "uint256",
          "name": "tokenId",
          "type": "uint256"
        },
        {
          "internalType": "uint256",
          "name": "price",
          "type": "uint256"
        }
      ],
      "name": "resellToken",
      "outputs": [],
      "stateMutability": "payable",
      "type": "function"
    },
    {
      "inputs": [
        {
          "internalType": "uint256",
          "name": "tokenId",
          "type": "uint256"
        }
      ],
      "name": "createMarketSale",
      "outputs": [],
      "stateMutability": "payable",
      "type": "function"
    },
    {
      "inputs": [],
      "name": "fetchMarketItems",
      "outputs": [
        {
          "components": [
            {
              "internalType": "uint256",
              "name": "tokenId",
              "type": "uint256"
            },
            {
              "internalType": "address payable",
              "name": "seller",
              "type": "address"
            },
            {
              "internalType": "address payable",
              "name": "tokenOwner",
              "type": "address"
            },
            {
              "internalType": "uint256",
              "name": "price",
              "type": "uint256"
            },
            {
              "internalType": "bool",
              "name": "sold",
              "type": "bool"
            }
          ],
          "internalType": "struct NFTMarketplace.MarketItem[]",
          "name": "",
          "type": "tuple[]"
        }
      ],
      "stateMutability": "view",
      "type": "function"
    },
    {
      "inputs": [],
      "name": "fetchMyNFTs",
      "outputs": [
        {
          "components": [
            {
              "internalType": "uint256",
              "name": "tokenId",
              "type": "uint256"
            },
            {
              "internalType": "address payable",
              "name": "seller",
              "type": "address"
            },
            {
              "internalType": "address payable",
              "name": "tokenOwner",
              "type": "address"
            },
            {
              "internalType": "uint256",
              "name": "price",
              "type": "uint256"
            },
            {
              "internalType": "bool",
              "name": "sold",
              "type": "bool"
            }
          ],
          "internalType": "struct NFTMarketplace.MarketItem[]",
          "name": "",
          "type": "tuple[]"
        }
      ],
      "stateMutability": "view",
      "type": "function"
    },
    {
      "inputs": [],
      "name": "fetchItemsListed",
      "outputs": [
        {
          "components": [
            {
              "internalType": "uint256",
              "name": "tokenId",
              "type": "uint256"
            },
            {
              "internalType": "address payable",
              "name": "seller",
              "type": "address"
            },
            {
              "internalType": "address payable",
              "name": "tokenOwner",
              "type": "address"
            },
            {
              "internalType": "uint256",
              "name": "price",
              "type": "uint256"
            },
            {
              "internalType": "bool",
              "name": "sold",
              "type": "bool"
            }
          ],
          "internalType": "struct NFTMarketplace.MarketItem[]",
          "name": "",
          "type": "tuple[]"
        }
      ],
      "stateMutability": "view",
      "type": "function"
    }
  ],
  "bytecode": "0x60806040526658d15e17628000600a553480156200001b575f80fd5b50336040518060400160405280601081526020017f4d657461766572736520546f6b656e73000000000000000000000000000000008152506040518060400160405280600481526020017f4d45545400000000000000000000000000000000000000000000000000000000815250815f908162000099919062000460565b508060019081620000ab919062000460565b5050505f73ffffffffffffffffffffffffffffffffffffffff168173ffffffffffffffffffffffffffffffffffffffff160362000121575f6040517f1e4fbdf700000000000000000000000000000000000000000000000000000000815260040162000118919062000587565b60405180910390fd5b62000132816200013960201b60201c565b50620005a2565b5f60075f9054906101000a900473ffffffffffffffffffffffffffffffffffffffff1690508160075f6101000a81548173ffffffffffffffffffffffffffffffffffffffff021916908373ffffffffffffffffffffffffffffffffffffffff1602179055508173ffffffffffffffffffffffffffffffffffffffff168173ffffffffffffffffffffffffffffffffffffffff167f8be0079c531659141344cd1fd0a4f28419497f9722a3daafe3b4186f6b6457e060405160405180910390a35050565b5f81519050919050565b7f4e487b71000000000000000000000000000000000000000000000000000000005f52604160045260245ffd5b7f4e487b71000000000000000000000000000000000000000000000000000000005f52602260045260245ffd5b5f60028204905060018216806200027857607f821691505b6020821081036200028e576200028d62000233565b5b50919050565b5f819050815f5260205f209050919050565b5f6020601f8301049050919050565b5f82821b905092915050565b5f60088302620002f27fffffffffffffffffffffffffffffffffffffffffffffffffffffffffffffffff82620002b5565b620002fe8683620002b5565b95508019841693508086168417925050509392505050565b5f819050919050565b5f819050919050565b5f62000348620003426200033c8462000316565b6200031f565b62000316565b9050919050565b5f819050919050565b620003638362000328565b6200037b62000372826200034f565b848454620002c1565b825550505050565b5f90565b6200039162000383565b6200039e81848462000358565b505050565b5b81811015620003c557620003b95f8262000387565b600181019050620003a4565b5050565b601f8211156200041457620003de8162000294565b620003e984620002a6565b81016020851015620003f9578190505b620004116200040885620002a6565b830182620003a3565b50505b505050565b5f82821c905092915050565b5f620004365f198460080262000419565b1980831691505092915050565b5f62000450838362000425565b9150826002028217905092915050565b6200046b82620001fc565b67ffffffffffffffff81111562000487576200048662000206565b5b62000493825462000260565b620004a0828285620003c9565b5f60209050601f831160018114620004d6575f8415620004c1578287015190505b620004cd858262000443565b8655506200053c565b601f198416620004e68662000294565b5f5b828110156200050f57848901518255600182019150602085019450602081019050620004e8565b868310156200052f57848901516200052b601f89168262000425565b8355505b6001600288020188555050505b505050505050565b5f73ffffffffffffffffffffffffffffffffffffffff82169050919050565b5f6200056f8262000544565b9050919050565b620005818162000563565b82525050565b5f6020820190506200059c5f83018462000576565b92915050565b613bf480620005b05f395ff3fe60806040526004361061014a575f3560e01c806372b3b620116100b5578063be9af5361161006e578063be9af53614610470578063c78f19f91461048c578063c87b56dd146104b6578063e219fc75146104f2578063e985e9c51461050e578063f2fde38b1461054a5761014a565b806372b3b620146103745780638da5cb5b146103a457806395d89b41146103ce578063a22cb465146103f8578063ae677aa314610420578063b88d4fde146104485761014a565b806323b872dd1161010757806323b872dd1461026c57806342842e0e1461029457806345f8fa80146102bc5780636352211e146102e657806370a0823114610322578063715018a61461035e5761014a565b806301ffc9a71461014e57806306fdde031461018a578063081812fc146101b4578063095ea7b3146101f05780630f08efe014610218578063202e374014610242575b5f80fd5b348015610159575f80fd5b50610174600480360381019061016f9190612bf4565b610572565b6040516101819190612c39565b60405180910390f35b348015610195575f80fd5b5061019e6105d2565b6040516101ab9190612cdc565b60405180910390f35b3480156101bf575f80fd5b506101da60048036038101906101d59190612d2f565b610661565b6040516101e79190612d99565b60405180910390f35b3480156101fb575f80fd5b5061021660048036038101906102119190612ddc565b61067c565b005b348015610223575f80fd5b5061022c610692565b6040516102399190612f66565b60405180910390f35b34801561024d575f80fd5b506102566108d6565b6040516102639190612f66565b60405180910390f35b348015610277575f80fd5b50610292600480360381019061028d9190612f86565b610ba8565b005b34801561029f575f80fd5b506102ba60048036038101906102b59190612f86565b610ca7565b005b3480156102c7575f80fd5b506102d0610cc6565b6040516102dd9190612f66565b60405180910390f35b3480156102f1575f80fd5b5061030c60048036038101906103079190612d2f565b610f98565b6040516103199190612d99565b60405180910390f35b34801561032d575f80fd5b5061034860048036038101906103439190612fd6565b610fa9565b6040516103559190613010565b60405180910390f35b348015610369575f80fd5b5061037261105f565b005b61038e60048036038101906103899190613155565b611072565b60405161039b9190613010565b60405180910390f35b3480156103af575f80fd5b506103b86110b8565b6040516103c59190612d99565b60405180910390f35b3480156103d9575f80fd5b506103e26110e0565b6040516103ef9190612cdc565b60405180910390f35b348015610403575f80fd5b5061041e600480360381019061041991906131d9565b611170565b005b34801561042b575f80fd5b5061044660048036038101906104419190612d2f565b611186565b005b348015610453575f80fd5b5061046e600480360381019061046991906132b5565b611198565b005b61048a60048036038101906104859190612d2f565b6111b5565b005b348015610497575f80fd5b506104a06113ce565b6040516104ad9190613010565b60405180910390f35b3480156104c1575f80fd5b506104dc60048036038101906104d79190612d2f565b6113d4565b6040516104e99190612cdc565b60405180910390f35b61050c60048036038101906105079190613335565b6114df565b005b348015610519575f80fd5b50610534600480360381019061052f9190613373565b6116d2565b6040516105419190612c39565b60405180910390f35b348015610555575f80fd5b50610570600480360381019061056b9190612fd6565b611760565b005b5f634906490660e01b7bffffffffffffffffffffffffffffffffffffffffffffffffffffffff1916827bffffffffffffffffffffffffffffffffffffffffffffffffffffffff191614806105cb57506105ca826117e4565b5b9050919050565b60605f80546105e0906133de565b80601f016020809104026020016040519081016040528092919081815260200182805461060c906133de565b80156106575780601f1061062e57610100808354040283529160200191610657565b820191905f5260205f20905b81548152906001019060200180831161063a57829003601f168201915b5050505050905090565b5f61066b826118c5565b506106758261194b565b9050919050565b61068e8282610689611984565b61198b565b5050565b60605f60085490505f6009546008546106ab919061343b565b90505f808267ffffffffffffffff8111156106c9576106c8613031565b5b60405190808252806020026020018201604052801561070257816020015b6106ef612b36565b8152602001906001900390816106e75790505b5090505f5b848110156108cb573073ffffffffffffffffffffffffffffffffffffffff16600b5f600184610736919061346e565b81526020019081526020015f206002015f9054906101000a900473ffffffffffffffffffffffffffffffffffffffff1673ffffffffffffffffffffffffffffffffffffffff16036108b8575f60018261078f919061346e565b90505f600b5f8381526020019081526020015f209050806040518060a00160405290815f8201548152602001600182015f9054906101000a900473ffffffffffffffffffffffffffffffffffffffff1673ffffffffffffffffffffffffffffffffffffffff1673ffffffffffffffffffffffffffffffffffffffff168152602001600282015f9054906101000a900473ffffffffffffffffffffffffffffffffffffffff1673ffffffffffffffffffffffffffffffffffffffff1673ffffffffffffffffffffffffffffffffffffffff16815260200160038201548152602001600482015f9054906101000a900460ff16151515158152505084868151811061089b5761089a6134a1565b5b60200260200101819052506001856108b3919061346e565b945050505b80806108c3906134ce565b915050610707565b508094505050505090565b60605f60085490505f805f5b8381101561097f573373ffffffffffffffffffffffffffffffffffffffff16600b5f600184610911919061346e565b81526020019081526020015f206002015f9054906101000a900473ffffffffffffffffffffffffffffffffffffffff1673ffffffffffffffffffffffffffffffffffffffff160361096c57600183610969919061346e565b92505b8080610977906134ce565b9150506108e2565b505f8267ffffffffffffffff81111561099b5761099a613031565b5b6040519080825280602002602001820160405280156109d457816020015b6109c1612b36565b8152602001906001900390816109b95790505b5090505f5b84811015610b9d573373ffffffffffffffffffffffffffffffffffffffff16600b5f600184610a08919061346e565b81526020019081526020015f206002015f9054906101000a900473ffffffffffffffffffffffffffffffffffffffff1673ffffffffffffffffffffffffffffffffffffffff1603610b8a575f600182610a61919061346e565b90505f600b5f8381526020019081526020015f209050806040518060a00160405290815f8201548152602001600182015f9054906101000a900473ffffffffffffffffffffffffffffffffffffffff1673ffffffffffffffffffffffffffffffffffffffff1673ffffffffffffffffffffffffffffffffffffffff168152602001600282015f9054906101000a900473ffffffffffffffffffffffffffffffffffffffff1673ffffffffffffffffffffffffffffffffffffffff1673ffffffffffffffffffffffffffffffffffffffff16815260200160038201548152602001600482015f9054906101000a900460ff161515151581525050848681518110610b6d57610b6c6134a1565b5b6020026020010181905250600185610b85919061346e565b945050505b8080610b95906134ce565b9150506109d9565b508094505050505090565b5f73ffffffffffffffffffffffffffffffffffffffff168273ffffffffffffffffffffffffffffffffffffffff1603610c18575f6040517f64a0ae92000000000000000000000000000000000000000000000000000000008152600401610c0f9190612d99565b60405180910390fd5b5f610c2b8383610c26611984565b61199d565b90508373ffffffffffffffffffffffffffffffffffffffff168173ffffffffffffffffffffffffffffffffffffffff1614610ca1578382826040517f64283d7b000000000000000000000000000000000000000000000000000000008152600401610c9893929190613515565b60405180910390fd5b50505050565b610cc183838360405180602001604052805f815250611198565b505050565b60605f60085490505f805f5b83811015610d6f573373ffffffffffffffffffffffffffffffffffffffff16600b5f600184610d01919061346e565b81526020019081526020015f206001015f9054906101000a900473ffffffffffffffffffffffffffffffffffffffff1673ffffffffffffffffffffffffffffffffffffffff1603610d5c57600183610d59919061346e565b92505b8080610d67906134ce565b915050610cd2565b505f8267ffffffffffffffff811115610d8b57610d8a613031565b5b604051908082528060200260200182016040528015610dc457816020015b610db1612b36565b815260200190600190039081610da95790505b5090505f5b84811015610f8d573373ffffffffffffffffffffffffffffffffffffffff16600b5f600184610df8919061346e565b81526020019081526020015f206001015f9054906101000a900473ffffffffffffffffffffffffffffffffffffffff1673ffffffffffffffffffffffffffffffffffffffff1603610f7a575f600182610e51919061346e565b90505f600b5f8381526020019081526020015f209050806040518060a00160405290815f8201548152602001600182015f9054906101000a900473ffffffffffffffffffffffffffffffffffffffff1673ffffffffffffffffffffffffffffffffffffffff1673ffffffffffffffffffffffffffffffffffffffff168152602001600282015f9054906101000a900473ffffffffffffffffffffffffffffffffffffffff1673ffffffffffffffffffffffffffffffffffffffff1673ffffffffffffffffffffffffffffffffffffffff16815260200160038201548152602001600482015f9054906101000a900460ff161515151581525050848681518110610f5d57610f5c6134a1565b5b6020026020010181905250600185610f75919061346e565b945050505b8080610f85906134ce565b915050610dc9565b508094505050505090565b5f610fa2826118c5565b9050919050565b5f8073ffffffffffffffffffffffffffffffffffffffff168273ffffffffffffffffffffffffffffffffffffffff160361101a575f6040517f89c62b640000000000000000000000000000000000000000000000000000000081526004016110119190612d99565b60405180910390fd5b60035f8373ffffffffffffffffffffffffffffffffffffffff1673ffffffffffffffffffffffffffffffffffffffff1681526020019081526020015f20549050919050565b611067611ba8565b6110705f611c2f565b565b5f60085f815480929190611085906134ce565b91905055505f600854905061109a3382611cf2565b6110a48185611de5565b6110ae8184611e3f565b8091505092915050565b5f60075f9054906101000a900473ffffffffffffffffffffffffffffffffffffffff16905090565b6060600180546110ef906133de565b80601f016020809104026020016040519081016040528092919081815260200182805461111b906133de565b80156111665780601f1061113d57610100808354040283529160200191611166565b820191905f5260205f20905b81548152906001019060200180831161114957829003601f168201915b5050505050905090565b61118261117b611984565b8383612038565b5050565b61118e611ba8565b80600a8190555050565b6111a3848484610ba8565b6111af848484846121a1565b50505050565b5f600b5f8381526020019081526020015f206003015490505f600b5f8481526020019081526020015f206001015f9054906101000a900473ffffffffffffffffffffffffffffffffffffffff169050813414611246576040517f08c379a000000000000000000000000000000000000000000000000000000000815260040161123d906135ba565b60405180910390fd5b33600b5f8581526020019081526020015f206002015f6101000a81548173ffffffffffffffffffffffffffffffffffffffff021916908373ffffffffffffffffffffffffffffffffffffffff1602179055506001600b5f8581526020019081526020015f206004015f6101000a81548160ff0219169083151502179055505f600b5f8581526020019081526020015f206001015f6101000a81548173ffffffffffffffffffffffffffffffffffffffff021916908373ffffffffffffffffffffffffffffffffffffffff16021790555060095f815480929190611328906134ce565b9190505550611338303385612353565b6113406110b8565b73ffffffffffffffffffffffffffffffffffffffff166108fc600a5490811502906040515f60405180830381858888f19350505050158015611384573d5f803e3d5ffd5b508073ffffffffffffffffffffffffffffffffffffffff166108fc3490811502906040515f60405180830381858888f193505050501580156113c8573d5f803e3d5ffd5b50505050565b600a5481565b60606113df826118c5565b505f60065f8481526020019081526020015f2080546113fd906133de565b80601f0160208091040260200160405190810160405280929190818152602001828054611429906133de565b80156114745780601f1061144b57610100808354040283529160200191611474565b820191905f5260205f20905b81548152906001019060200180831161145757829003601f168201915b505050505090505f6114846124bb565b90505f8151036114985781925050506114da565b5f825111156114cc5780826040516020016114b4929190613612565b604051602081830303815290604052925050506114da565b6114d5846124d1565b925050505b919050565b3373ffffffffffffffffffffffffffffffffffffffff16600b5f8481526020019081526020015f206002015f9054906101000a900473ffffffffffffffffffffffffffffffffffffffff1673ffffffffffffffffffffffffffffffffffffffff1614611580576040517f08c379a0000000000000000000000000000000000000000000000000000000008152600401611577906136a5565b60405180910390fd5b600a5434146115c4576040517f08c379a00000000000000000000000000000000000000000000000000000000081526004016115bb90613733565b60405180910390fd5b5f600b5f8481526020019081526020015f206004015f6101000a81548160ff02191690831515021790555080600b5f8481526020019081526020015f206003018190555033600b5f8481526020019081526020015f206001015f6101000a81548173ffffffffffffffffffffffffffffffffffffffff021916908373ffffffffffffffffffffffffffffffffffffffff16021790555030600b5f8481526020019081526020015f206002015f6101000a81548173ffffffffffffffffffffffffffffffffffffffff021916908373ffffffffffffffffffffffffffffffffffffffff16021790555060095f8154809291906116be90613751565b91905055506116ce333084612353565b5050565b5f60055f8473ffffffffffffffffffffffffffffffffffffffff1673ffffffffffffffffffffffffffffffffffffffff1681526020019081526020015f205f8373ffffffffffffffffffffffffffffffffffffffff1673ffffffffffffffffffffffffffffffffffffffff1681526020019081526020015f205f9054906101000a900460ff16905092915050565b611768611ba8565b5f73ffffffffffffffffffffffffffffffffffffffff168173ffffffffffffffffffffffffffffffffffffffff16036117d8575f6040517f1e4fbdf70000000000000000000000000000000000000000000000000000000081526004016117cf9190612d99565b60405180910390fd5b6117e181611c2f565b50565b5f7f80ac58cd000000000000000000000000000000000000000000000000000000007bffffffffffffffffffffffffffffffffffffffffffffffffffffffff1916827bffffffffffffffffffffffffffffffffffffffffffffffffffffffff191614806118ae57507f5b5e139f000000000000000000000000000000000000000000000000000000007bffffffffffffffffffffffffffffffffffffffffffffffffffffffff1916827bffffffffffffffffffffffffffffffffffffffffffffffffffffffff1916145b806118be57506118bd82612537565b5b9050919050565b5f806118d0836125a0565b90505f73ffffffffffffffffffffffffffffffffffffffff168173ffffffffffffffffffffffffffffffffffffffff160361194257826040517f7e2732890000000000000000000000000000000000000000000000000000000081526004016119399190613010565b60405180910390fd5b80915050919050565b5f60045f8381526020019081526020015f205f9054906101000a900473ffffffffffffffffffffffffffffffffffffffff169050919050565b5f33905090565b61199883838360016125d9565b505050565b5f806119a8846125a0565b90505f73ffffffffffffffffffffffffffffffffffffffff168373ffffffffffffffffffffffffffffffffffffffff16146119e9576119e8818486612798565b5b5f73ffffffffffffffffffffffffffffffffffffffff168173ffffffffffffffffffffffffffffffffffffffff1614611a7457611a285f855f806125d9565b600160035f8373ffffffffffffffffffffffffffffffffffffffff1673ffffffffffffffffffffffffffffffffffffffff1681526020019081526020015f205f82825403925050819055505b5f73ffffffffffffffffffffffffffffffffffffffff168573ffffffffffffffffffffffffffffffffffffffff1614611af357600160035f8773ffffffffffffffffffffffffffffffffffffffff1673ffffffffffffffffffffffffffffffffffffffff1681526020019081526020015f205f82825401925050819055505b8460025f8681526020019081526020015f205f6101000a81548173ffffffffffffffffffffffffffffffffffffffff021916908373ffffffffffffffffffffffffffffffffffffffff160217905550838573ffffffffffffffffffffffffffffffffffffffff168273ffffffffffffffffffffffffffffffffffffffff167fddf252ad1be2c89b69c2b068fc378daa952ba7f163c4a11628f55a4df523b3ef60405160405180910390a4809150509392505050565b611bb0611984565b73ffffffffffffffffffffffffffffffffffffffff16611bce6110b8565b73ffffffffffffffffffffffffffffffffffffffff1614611c2d57611bf1611984565b6040517f118cdaa7000000000000000000000000000000000000000000000000000000008152600401611c249190612d99565b60405180910390fd5b565b5f60075f9054906101000a900473ffffffffffffffffffffffffffffffffffffffff1690508160075f6101000a81548173ffffffffffffffffffffffffffffffffffffffff021916908373ffffffffffffffffffffffffffffffffffffffff1602179055508173ffffffffffffffffffffffffffffffffffffffff168173ffffffffffffffffffffffffffffffffffffffff167f8be0079c531659141344cd1fd0a4f28419497f9722a3daafe3b4186f6b6457e060405160405180910390a35050565b5f73ffffffffffffffffffffffffffffffffffffffff168273ffffffffffffffffffffffffffffffffffffffff1603611d62575f6040517f64a0ae92000000000000000000000000000000000000000000000000000000008152600401611d599190612d99565b60405180910390fd5b5f611d6e83835f61199d565b90505f73ffffffffffffffffffffffffffffffffffffffff168173ffffffffffffffffffffffffffffffffffffffff1614611de0575f6040517f73c6ac6e000000000000000000000000000000000000000000000000000000008152600401611dd79190612d99565b60405180910390fd5b505050565b8060065f8481526020019081526020015f209081611e039190613915565b507ff8e1a15aba9398e019f0b49df1a4fde98ee17ae345cb5f6b5e2c27f5033e8ce782604051611e339190613010565b60405180910390a15050565b5f8111611e81576040517f08c379a0000000000000000000000000000000000000000000000000000000008152600401611e7890613a2e565b60405180910390fd5b600a543414611ec5576040517f08c379a0000000000000000000000000000000000000000000000000000000008152600401611ebc90613733565b60405180910390fd5b6040518060a001604052808381526020013373ffffffffffffffffffffffffffffffffffffffff1681526020013073ffffffffffffffffffffffffffffffffffffffff1681526020018281526020015f1515815250600b5f8481526020019081526020015f205f820151815f01556020820151816001015f6101000a81548173ffffffffffffffffffffffffffffffffffffffff021916908373ffffffffffffffffffffffffffffffffffffffff1602179055506040820151816002015f6101000a81548173ffffffffffffffffffffffffffffffffffffffff021916908373ffffffffffffffffffffffffffffffffffffffff160217905550606082015181600301556080820151816004015f6101000a81548160ff021916908315150217905550905050611ff6333084612353565b817fb640004f1d14576d0c209e240cad0410e0d8c0c33a09375861fbadae2588a98d3330845f60405161202c9493929190613a4c565b60405180910390a25050565b5f73ffffffffffffffffffffffffffffffffffffffff168273ffffffffffffffffffffffffffffffffffffffff16036120a857816040517f5b08ba1800000000000000000000000000000000000000000000000000000000815260040161209f9190612d99565b60405180910390fd5b8060055f8573ffffffffffffffffffffffffffffffffffffffff1673ffffffffffffffffffffffffffffffffffffffff1681526020019081526020015f205f8473ffffffffffffffffffffffffffffffffffffffff1673ffffffffffffffffffffffffffffffffffffffff1681526020019081526020015f205f6101000a81548160ff0219169083151502179055508173ffffffffffffffffffffffffffffffffffffffff168373ffffffffffffffffffffffffffffffffffffffff167f17307eab39ab6107e8899845ad3d59bd9653f200f220920489ca2b5937696c31836040516121949190612c39565b60405180910390a3505050565b5f8373ffffffffffffffffffffffffffffffffffffffff163b111561234d578273ffffffffffffffffffffffffffffffffffffffff1663150b7a026121e4611984565b8685856040518563ffffffff1660e01b81526004016122069493929190613ae1565b6020604051808303815f875af192505050801561224157506040513d601f19601f8201168201806040525081019061223e9190613b3f565b60015b6122c2573d805f811461226f576040519150601f19603f3d011682016040523d82523d5f602084013e612274565b606091505b505f8151036122ba57836040517f64a0ae920000000000000000000000000000000000000000000000000000000081526004016122b19190612d99565b60405180910390fd5b805181602001fd5b63150b7a0260e01b7bffffffffffffffffffffffffffffffffffffffffffffffffffffffff1916817bffffffffffffffffffffffffffffffffffffffffffffffffffffffff19161461234b57836040517f64a0ae920000000000000000000000000000000000000000000000000000000081526004016123429190612d99565b60405180910390fd5b505b50505050565b5f73ffffffffffffffffffffffffffffffffffffffff168273ffffffffffffffffffffffffffffffffffffffff16036123c3575f6040517f64a0ae920000000000000000000000000000000000000000000000000000000081526004016123ba9190612d99565b60405180910390fd5b5f6123cf83835f61199d565b90505f73ffffffffffffffffffffffffffffffffffffffff168173ffffffffffffffffffffffffffffffffffffffff160361244157816040517f7e2732890000000000000000000000000000000000000000000000000000000081526004016124389190613010565b60405180910390fd5b8373ffffffffffffffffffffffffffffffffffffffff168173ffffffffffffffffffffffffffffffffffffffff16146124b5578382826040517f64283d7b0000000000000000000000000000000000000000000000000000000081526004016124ac93929190613515565b60405180910390fd5b50505050565b606060405180602001604052805f815250905090565b60606124dc826118c5565b505f6124e66124bb565b90505f8151116125045760405180602001604052805f81525061252f565b8061250e8461285b565b60405160200161251f929190613612565b6040516020818303038152906040525b915050919050565b5f7f01ffc9a7000000000000000000000000000000000000000000000000000000007bffffffffffffffffffffffffffffffffffffffffffffffffffffffff1916827bffffffffffffffffffffffffffffffffffffffffffffffffffffffff1916149050919050565b5f60025f8381526020019081526020015f205f9054906101000a900473ffffffffffffffffffffffffffffffffffffffff169050919050565b808061261157505f73ffffffffffffffffffffffffffffffffffffffff168273ffffffffffffffffffffffffffffffffffffffff1614155b15612743575f612620846118c5565b90505f73ffffffffffffffffffffffffffffffffffffffff168373ffffffffffffffffffffffffffffffffffffffff161415801561268a57508273ffffffffffffffffffffffffffffffffffffffff168173ffffffffffffffffffffffffffffffffffffffff1614155b801561269d575061269b81846116d2565b155b156126df57826040517fa9fbf51f0000000000000000000000000000000000000000000000000000000081526004016126d69190612d99565b60405180910390fd5b811561274157838573ffffffffffffffffffffffffffffffffffffffff168273ffffffffffffffffffffffffffffffffffffffff167f8c5be1e5ebec7d5bd14f71427d1e84f3dd0314c0f7b2291e5b200ac8c7c3b92560405160405180910390a45b505b8360045f8581526020019081526020015f205f6101000a81548173ffffffffffffffffffffffffffffffffffffffff021916908373ffffffffffffffffffffffffffffffffffffffff16021790555050505050565b6127a3838383612925565b612856575f73ffffffffffffffffffffffffffffffffffffffff168373ffffffffffffffffffffffffffffffffffffffff160361281757806040517f7e27328900000000000000000000000000000000000000000000000000000000815260040161280e9190613010565b60405180910390fd5b81816040517f177e802f00000000000000000000000000000000000000000000000000000000815260040161284d929190613b6a565b60405180910390fd5b505050565b60605f6001612869846129e5565b0190505f8167ffffffffffffffff81111561288757612886613031565b5b6040519080825280601f01601f1916602001820160405280156128b95781602001600182028036833780820191505090505b5090505f82602001820190505b60011561291a578080600190039150507f3031323334353637383961626364656600000000000000000000000000000000600a86061a8153600a858161290f5761290e613b91565b5b0494505f85036128c6575b819350505050919050565b5f8073ffffffffffffffffffffffffffffffffffffffff168373ffffffffffffffffffffffffffffffffffffffff16141580156129dc57508273ffffffffffffffffffffffffffffffffffffffff168473ffffffffffffffffffffffffffffffffffffffff16148061299d575061299c84846116d2565b5b806129db57508273ffffffffffffffffffffffffffffffffffffffff166129c38361194b565b73ffffffffffffffffffffffffffffffffffffffff16145b5b90509392505050565b5f805f90507a184f03e93ff9f4daa797ed6e38ed64bf6a1f0100000000000000008310612a41577a184f03e93ff9f4daa797ed6e38ed64bf6a1f0100000000000000008381612a3757612a36613b91565b5b0492506040810190505b6d04ee2d6d415b85acef81000000008310612a7e576d04ee2d6d415b85acef81000000008381612a7457612a73613b91565b5b0492506020810190505b662386f26fc100008310612aad57662386f26fc100008381612aa357612aa2613b91565b5b0492506010810190505b6305f5e1008310612ad6576305f5e1008381612acc57612acb613b91565b5b0492506008810190505b6127108310612afb576127108381612af157612af0613b91565b5b0492506004810190505b60648310612b1e5760648381612b1457612b13613b91565b5b0492506002810190505b600a8310612b2d576001810190505b80915050919050565b6040518060a001604052805f81526020015f73ffffffffffffffffffffffffffffffffffffffff1681526020015f73ffffffffffffffffffffffffffffffffffffffff1681526020015f81526020015f151581525090565b5f604051905090565b5f80fd5b5f80fd5b5f7fffffffff0000000000000000000000000000000000000000000000000000000082169050919050565b612bd381612b9f565b8114612bdd575f80fd5b50565b5f81359050612bee81612bca565b92915050565b5f60208284031215612c0957612c08612b97565b5b5f612c1684828501612be0565b91505092915050565b5f8115159050919050565b612c3381612c1f565b82525050565b5f602082019050612c4c5f830184612c2a565b92915050565b5f81519050919050565b5f82825260208201905092915050565b5f5b83811015612c89578082015181840152602081019050612c6e565b5f8484015250505050565b5f601f19601f8301169050919050565b5f612cae82612c52565b612cb88185612c5c565b9350612cc8818560208601612c6c565b612cd181612c94565b840191505092915050565b5f6020820190508181035f830152612cf48184612ca4565b905092915050565b5f819050919050565b612d0e81612cfc565b8114612d18575f80fd5b50565b5f81359050612d2981612d05565b92915050565b5f60208284031215612d4457612d43612b97565b5b5f612d5184828501612d1b565b91505092915050565b5f73ffffffffffffffffffffffffffffffffffffffff82169050919050565b5f612d8382612d5a565b9050919050565b612d9381612d79565b82525050565b5f602082019050612dac5f830184612d8a565b92915050565b612dbb81612d79565b8114612dc5575f80fd5b50565b5f81359050612dd681612db2565b92915050565b5f8060408385031215612df257612df1612b97565b5b5f612dff85828601612dc8565b9250506020612e1085828601612d1b565b9150509250929050565b5f81519050919050565b5f82825260208201905092915050565b5f819050602082019050919050565b612e4c81612cfc565b82525050565b5f612e5c82612d5a565b9050919050565b612e6c81612e52565b82525050565b612e7b81612c1f565b82525050565b60a082015f820151612e955f850182612e43565b506020820151612ea86020850182612e63565b506040820151612ebb6040850182612e63565b506060820151612ece6060850182612e43565b506080820151612ee16080850182612e72565b50505050565b5f612ef28383612e81565b60a08301905092915050565b5f602082019050919050565b5f612f1482612e1a565b612f1e8185612e24565b9350612f2983612e34565b805f5b83811015612f59578151612f408882612ee7565b9750612f4b83612efe565b925050600181019050612f2c565b5085935050505092915050565b5f6020820190508181035f830152612f7e8184612f0a565b905092915050565b5f805f60608486031215612f9d57612f9c612b97565b5b5f612faa86828701612dc8565b9350506020612fbb86828701612dc8565b9250506040612fcc86828701612d1b565b9150509250925092565b5f60208284031215612feb57612fea612b97565b5b5f612ff884828501612dc8565b91505092915050565b61300a81612cfc565b82525050565b5f6020820190506130235f830184613001565b92915050565b5f80fd5b5f80fd5b7f4e487b71000000000000000000000000000000000000000000000000000000005f52604160045260245ffd5b61306782612c94565b810181811067ffffffffffffffff8211171561308657613085613031565b5b80604052505050565b5f613098612b8e565b90506130a4828261305e565b919050565b5f67ffffffffffffffff8211156130c3576130c2613031565b5b6130cc82612c94565b9050602081019050919050565b828183375f83830152505050565b5f6130f96130f4846130a9565b61308f565b9050828152602081018484840111156131155761311461302d565b5b6131208482856130d9565b509392505050565b5f82601f83011261313c5761313b613029565b5b813561314c8482602086016130e7565b91505092915050565b5f806040838503121561316b5761316a612b97565b5b5f83013567ffffffffffffffff81111561318857613187612b9b565b5b61319485828601613128565b92505060206131a585828601612d1b565b9150509250929050565b6131b881612c1f565b81146131c2575f80fd5b50565b5f813590506131d3816131af565b92915050565b5f80604083850312156131ef576131ee612b97565b5b5f6131fc85828601612dc8565b925050602061320d858286016131c5565b9150509250929050565b5f67ffffffffffffffff82111561323157613230613031565b5b61323a82612c94565b9050602081019050919050565b5f61325961325484613217565b61308f565b9050828152602081018484840111156132755761327461302d565b5b6132808482856130d9565b509392505050565b5f82601f83011261329c5761329b613029565b5b81356132ac848260208601613247565b91505092915050565b5f805f80608085870312156132cd576132cc612b97565b5b5f6132da87828801612dc8565b94505060206132eb87828801612dc8565b93505060406132fc87828801612d1b565b925050606085013567ffffffffffffffff81111561331d5761331c612b9b565b5b61332987828801613288565b91505092959194509250565b5f806040838503121561334b5761334a612b97565b5b5f61335885828601612d1b565b925050602061336985828601612d1b565b9150509250929050565b5f806040838503121561338957613388612b97565b5b5f61339685828601612dc8565b92505060206133a785828601612dc8565b9150509250929050565b7f4e487b71000000000000000000000000000000000000000000000000000000005f52602260045260245ffd5b5f60028204905060018216806133f557607f821691505b602082108103613408576134076133b1565b5b50919050565b7f4e487b71000000000000000000000000000000000000000000000000000000005f52601160045260245ffd5b5f61344582612cfc565b915061345083612cfc565b92508282039050818111156134685761346761340e565b5b92915050565b5f61347882612cfc565b915061348383612cfc565b925082820190508082111561349b5761349a61340e565b5b92915050565b7f4e487b71000000000000000000000000000000000000000000000000000000005f52603260045260245ffd5b5f6134d882612cfc565b91507fffffffffffffffffffffffffffffffffffffffffffffffffffffffffffffffff820361350a5761350961340e565b5b600182019050919050565b5f6060820190506135285f830186612d8a565b6135356020830185613001565b6135426040830184612d8a565b949350505050565b7f506c65617365207375626d6974207468652061736b696e6720707269636520745f8201527f6f20636f6d706c65746520746865207075726368617365000000000000000000602082015250565b5f6135a4603783612c5c565b91506135af8261354a565b604082019050919050565b5f6020820190508181035f8301526135d181613598565b9050919050565b5f81905092915050565b5f6135ec82612c52565b6135f681856135d8565b9350613606818560208601612c6c565b80840191505092915050565b5f61361d82856135e2565b915061362982846135e2565b91508190509392505050565b7f4f6e6c79206974656d206f776e65722063616e20706572666f726d20746869735f8201527f206f7065726174696f6e00000000000000000000000000000000000000000000602082015250565b5f61368f602a83612c5c565b915061369a82613635565b604082019050919050565b5f6020820190508181035f8301526136bc81613683565b9050919050565b7f5072696365206d75737420626520657175616c20746f206c697374696e6720705f8201527f7269636500000000000000000000000000000000000000000000000000000000602082015250565b5f61371d602483612c5c565b9150613728826136c3565b604082019050919050565b5f6020820190508181035f83015261374a81613711565b9050919050565b5f61375b82612cfc565b91505f820361376d5761376c61340e565b5b600182039050919050565b5f819050815f5260205f209050919050565b5f6020601f8301049050919050565b5f82821b905092915050565b5f600883026137d47fffffffffffffffffffffffffffffffffffffffffffffffffffffffffffffffff82613799565b6137de8683613799565b95508019841693508086168417925050509392505050565b5f819050919050565b5f61381961381461380f84612cfc565b6137f6565b612cfc565b9050919050565b5f819050919050565b613832836137ff565b61384661383e82613820565b8484546137a5565b825550505050565b5f90565b61385a61384e565b613865818484613829565b505050565b5b818110156138885761387d5f82613852565b60018101905061386b565b5050565b601f8211156138cd5761389e81613778565b6138a78461378a565b810160208510156138b6578190505b6138ca6138c28561378a565b83018261386a565b50505b505050565b5f82821c905092915050565b5f6138ed5f19846008026138d2565b1980831691505092915050565b5f61390583836138de565b9150826002028217905092915050565b61391e82612c52565b67ffffffffffffffff81111561393757613936613031565b5b61394182546133de565b61394c82828561388c565b5f60209050601f83116001811461397d575f841561396b578287015190505b61397585826138fa565b8655506139dc565b601f19841661398b86613778565b5f5b828110156139b25784890151825560018201915060208501945060208101905061398d565b868310156139cf57848901516139cb601f8916826138de565b8355505b6001600288020188555050505b505050505050565b7f5072696365206d757374206265206174206c65617374203120776569000000005f82015250565b5f613a18601c83612c5c565b9150613a23826139e4565b602082019050919050565b5f6020820190508181035f830152613a4581613a0c565b9050919050565b5f608082019050613a5f5f830187612d8a565b613a6c6020830186612d8a565b613a796040830185613001565b613a866060830184612c2a565b95945050505050565b5f81519050919050565b5f82825260208201905092915050565b5f613ab382613a8f565b613abd8185613a99565b9350613acd818560208601612c6c565b613ad681612c94565b840191505092915050565b5f608082019050613af45f830187612d8a565b613b016020830186612d8a565b613b0e6040830185613001565b8181036060830152613b208184613aa9565b905095945050505050565b5f81519050613b3981612bca565b92915050565b5f60208284031215613b5457613b53612b97565b5b5f613b6184828501613b2b565b91505092915050565b5f604082019050613b7d5f830185612d8a565b613b8a6020830184613001565b9392505050565b7f4e487b71000000000000000000000000000000000000000000000000000000005f52601260045260245ffdfea2646970667358221220a5eec255d9462dae77c3865fb90cf25a61829a0ae58245fe9f332bcf1ff448a964736f6c63430008150033",
  "immutableReferences": {},
  "source": "// SPDX-License-Identifier: MIT\npragma solidity ^0.8.4;\n\nimport \"@openzeppelin/contracts/token/ERC721/extensions/ERC721URIStorage.sol\";\nimport \"@openzeppelin/contracts/token/ERC721/ERC721.sol\";\nimport \"@openzeppelin/contracts/access/Ownable.sol\";\n\ncontract NFTMarketplace is ERC721URIStorage, Ownable {\n    uint256 private _tokenIds;\n    uint256 private _itemsSold;\n\n    uint256 public listingPrice = 0.025 ether;\n\n    mapping(uint256 => MarketItem) private idToMarketItem;\n\n    struct MarketItem {\n        uint256 tokenId;\n        address payable seller;\n        address payable tokenOwner;\n        uint256 price;\n        bool sold;\n    }\n\n    event MarketItemCreated(\n        uint256 indexed tokenId,\n        address seller,\n        address tokenOwner,\n        uint256 price,\n        bool sold\n    );\n\n    constructor() ERC721(\"Metaverse Tokens\", \"METT\") Ownable(payable(msg.sender)) {}\n\n    function updateListingPrice(uint256 _listingPrice) public onlyOwner {\n        listingPrice = _listingPrice;\n    }\n\n    function createToken(string memory tokenURI, uint256 price) public payable returns (uint) {\n        _tokenIds++;\n        uint256 newTokenId = _tokenIds;\n\n        _mint(msg.sender, newTokenId);\n        _setTokenURI(newTokenId, tokenURI);\n        createMarketItem(newTokenId, price);\n        return newTokenId;\n    }\n\n\n    function createMarketItem(uint256 tokenId, uint256 price) private {\n        require(price > 0, \"Price must be at least 1 wei\");\n        require(msg.value == listingPrice, \"Price must be equal to listing price\");\n\n        idToMarketItem[tokenId] = MarketItem(\n            tokenId,\n            payable(msg.sender),\n            payable(address(this)),\n            price,\n            false\n        );\n\n        _transfer(msg.sender, address(this), tokenId);\n        emit MarketItemCreated(\n            tokenId,\n            msg.sender,\n            address(this),\n            price,\n            false\n        );\n    }\n\n    function resellToken(uint256 tokenId, uint256 price) public payable {\n        require(idToMarketItem[tokenId].tokenOwner == msg.sender, \"Only item owner can perform this operation\");\n        require(msg.value == listingPrice, \"Price must be equal to listing price\");\n        idToMarketItem[tokenId].sold = false;\n        idToMarketItem[tokenId].price = price;\n        idToMarketItem[tokenId].seller = payable(msg.sender);\n        idToMarketItem[tokenId].tokenOwner = payable(address(this));\n        _itemsSold--;\n\n        _transfer(msg.sender, address(this), tokenId);\n    }\n\n   function createMarketSale(uint256 tokenId) public payable {\n    uint256 price = idToMarketItem[tokenId].price;\n    address payable seller = idToMarketItem[tokenId].seller;\n    require(msg.value == price, \"Please submit the asking price to complete the purchase\");\n    idToMarketItem[tokenId].tokenOwner = payable(msg.sender);\n    idToMarketItem[tokenId].sold = true;\n    idToMarketItem[tokenId].seller = payable(address(0));\n    _itemsSold++;\n    _transfer(address(this), msg.sender, tokenId);\n    payable(owner()).transfer(listingPrice);\n    seller.transfer(msg.value);\n}\n\n\n    function fetchMarketItems() public view returns (MarketItem[] memory) {\n        uint256 itemCount = _tokenIds;\n        uint256 unsoldItemCount = _tokenIds - _itemsSold;\n        uint256 currentIndex = 0;\n\n        MarketItem[] memory items = new MarketItem[](unsoldItemCount);\n        for (uint256 i = 0; i < itemCount; i++) {\n            if (idToMarketItem[i + 1].tokenOwner == address(this)) {\n                uint256 currentId = i + 1;\n                MarketItem storage currentItem = idToMarketItem[currentId];\n                items[currentIndex] = currentItem;\n                currentIndex += 1;\n            }\n        }\n        return items;\n    }\n\n    function fetchMyNFTs() public view returns (MarketItem[] memory) {\n        uint256 totalItemCount = _tokenIds;\n        uint256 itemCount = 0;\n        uint256 currentIndex = 0;\n\n        for (uint256 i = 0; i < totalItemCount; i++) {\n            if (idToMarketItem[i + 1].tokenOwner == msg.sender) {\n                itemCount += 1;\n            }\n        }\n\n        MarketItem[] memory items = new MarketItem[](itemCount);\n        for (uint256 i = 0; i < totalItemCount; i++) {\n            if (idToMarketItem[i + 1].tokenOwner == msg.sender) {\n                uint256 currentId = i + 1;\n                MarketItem storage currentItem = idToMarketItem[currentId];\n                items[currentIndex] = currentItem;\n                currentIndex += 1;\n            }\n        }\n        return items;\n    }\n\n    function fetchItemsListed() public view returns (MarketItem[] memory) {\n        uint256 totalItemCount = _tokenIds;\n        uint256 itemCount = 0;\n        uint256 currentIndex = 0;\n\n        for (uint256 i = 0; i < totalItemCount; i++) {\n            if (idToMarketItem[i + 1].seller == msg.sender) {\n                itemCount += 1;\n            }\n        }\n\n        MarketItem[] memory items = new MarketItem[](itemCount);\n        for (uint256 i = 0; i < totalItemCount; i++) {\n            if (idToMarketItem[i + 1].seller == msg.sender) {\n                uint256 currentId = i + 1;\n                MarketItem storage currentItem = idToMarketItem[currentId];\n                items[currentIndex] = currentItem;\n                currentIndex += 1;\n            }\n        }\n        return items;\n    }\n\n    /* Fetches images from FastAPI and creates NFTs */\n   function storeImageUrl() internal view returns (string[] memory) {\n        // Replace the placeholder URL with your actual FastAPI endpoint URL\n        string memory FASTAPI_ENDPOINT_URL = \"http://127.0.0.1:8000\";\n\n        // Make an HTTP request to your FastAPI endpoint\n        (bool success, bytes memory data) = address(this).staticcall(\n            abi.encodeWithSignature(FASTAPI_ENDPOINT_URL)\n        );\n\n        require(success, \"Failed to fetch image URLs\");\n\n        string[] memory result = abi.decode(data, (string[]));\n\n        return result;\n    }\n}\n",
  "sourcePath": "C:\\Users\\91965\\Desktop\\NFT\\nft-marketplace\\contracts\\nft.sol",
  "compiler": {
    "name": "solc",
    "version": "0.8.21+commit.d9974bed.Emscripten.clang"
  },
  "schemaVersion": "3.4.16",
  "updatedAt": "2024-01-19T10:09:36.330Z",
  "devdoc": {
    "errors": {
      "ERC721IncorrectOwner(address,uint256,address)": [
        {
          "details": "Indicates an error related to the ownership over a particular token. Used in transfers.",
          "params": {
            "owner": "Address of the current owner of a token.",
            "sender": "Address whose tokens are being transferred.",
            "tokenId": "Identifier number of a token."
          }
        }
      ],
      "ERC721InsufficientApproval(address,uint256)": [
        {
          "details": "Indicates a failure with the `operator`s approval. Used in transfers.",
          "params": {
            "operator": "Address that may be allowed to operate on tokens without being their owner.",
            "tokenId": "Identifier number of a token."
          }
        }
      ],
      "ERC721InvalidApprover(address)": [
        {
          "details": "Indicates a failure with the `approver` of a token to be approved. Used in approvals.",
          "params": {
            "approver": "Address initiating an approval operation."
          }
        }
      ],
      "ERC721InvalidOperator(address)": [
        {
          "details": "Indicates a failure with the `operator` to be approved. Used in approvals.",
          "params": {
            "operator": "Address that may be allowed to operate on tokens without being their owner."
          }
        }
      ],
      "ERC721InvalidOwner(address)": [
        {
          "details": "Indicates that an address can't be an owner. For example, `address(0)` is a forbidden owner in EIP-20. Used in balance queries.",
          "params": {
            "owner": "Address of the current owner of a token."
          }
        }
      ],
      "ERC721InvalidReceiver(address)": [
        {
          "details": "Indicates a failure with the token `receiver`. Used in transfers.",
          "params": {
            "receiver": "Address to which tokens are being transferred."
          }
        }
      ],
      "ERC721InvalidSender(address)": [
        {
          "details": "Indicates a failure with the token `sender`. Used in transfers.",
          "params": {
            "sender": "Address whose tokens are being transferred."
          }
        }
      ],
      "ERC721NonexistentToken(uint256)": [
        {
          "details": "Indicates a `tokenId` whose `owner` is the zero address.",
          "params": {
            "tokenId": "Identifier number of a token."
          }
        }
      ],
      "OwnableInvalidOwner(address)": [
        {
          "details": "The owner is not a valid owner account. (eg. `address(0)`)"
        }
      ],
      "OwnableUnauthorizedAccount(address)": [
        {
          "details": "The caller account is not authorized to perform an operation."
        }
      ]
    },
    "events": {
      "Approval(address,address,uint256)": {
        "details": "Emitted when `owner` enables `approved` to manage the `tokenId` token."
      },
      "ApprovalForAll(address,address,bool)": {
        "details": "Emitted when `owner` enables or disables (`approved`) `operator` to manage all of its assets."
      },
      "BatchMetadataUpdate(uint256,uint256)": {
        "details": "This event emits when the metadata of a range of tokens is changed. So that the third-party platforms such as NFT market could timely update the images and related attributes of the NFTs."
      },
      "MetadataUpdate(uint256)": {
        "details": "This event emits when the metadata of a token is changed. So that the third-party platforms such as NFT market could timely update the images and related attributes of the NFT."
      },
      "Transfer(address,address,uint256)": {
        "details": "Emitted when `tokenId` token is transferred from `from` to `to`."
      }
    },
    "kind": "dev",
    "methods": {
      "approve(address,uint256)": {
        "details": "See {IERC721-approve}."
      },
      "balanceOf(address)": {
        "details": "See {IERC721-balanceOf}."
      },
      "getApproved(uint256)": {
        "details": "See {IERC721-getApproved}."
      },
      "isApprovedForAll(address,address)": {
        "details": "See {IERC721-isApprovedForAll}."
      },
      "name()": {
        "details": "See {IERC721Metadata-name}."
      },
      "owner()": {
        "details": "Returns the address of the current owner."
      },
      "ownerOf(uint256)": {
        "details": "See {IERC721-ownerOf}."
      },
      "renounceOwnership()": {
        "details": "Leaves the contract without owner. It will not be possible to call `onlyOwner` functions. Can only be called by the current owner. NOTE: Renouncing ownership will leave the contract without an owner, thereby disabling any functionality that is only available to the owner."
      },
      "safeTransferFrom(address,address,uint256)": {
        "details": "See {IERC721-safeTransferFrom}."
      },
      "safeTransferFrom(address,address,uint256,bytes)": {
        "details": "See {IERC721-safeTransferFrom}."
      },
      "setApprovalForAll(address,bool)": {
        "details": "See {IERC721-setApprovalForAll}."
      },
      "supportsInterface(bytes4)": {
        "details": "See {IERC165-supportsInterface}"
      },
      "symbol()": {
        "details": "See {IERC721Metadata-symbol}."
      },
      "tokenURI(uint256)": {
        "details": "See {IERC721Metadata-tokenURI}."
      },
      "transferFrom(address,address,uint256)": {
        "details": "See {IERC721-transferFrom}."
      },
      "transferOwnership(address)": {
        "details": "Transfers ownership of the contract to a new account (`newOwner`). Can only be called by the current owner."
      }
    },
    "version": 1
  },
  "userdoc": {
    "kind": "user",
    "methods": {},
    "version": 1
  }
}